:020000040000FA
:0400000051EF0EF0BE
:10060000003C202020204B656C76696E2020202045
:100610002000202020202043656C73697573202002
:10062000203E003C202046616872656E68656974F2
:1006300020203E004B202020004320200046202088
:1006400000001650800B1F6E16501624256E15AE36
:100650002CEF03F02EEF03F02FEF03F02580255051
:10066000D8B435EF03F037EF03F04AEF03F0252855
:10067000D8A43DEF03F03FEF03F047EF03F0000E87
:10068000136E000E146E000E156E000E166E158E93
:1006900052EF03F0000E136E000E146E000E156E76
:1006A000000E166E1A50800B1F1A1A501A24246E50
:1006B00019AE5DEF03F05FEF03F060EF03F024800D
:1006C0002450D8B466EF03F068EF03F07BEF03F03B
:1006D0002428D8A46EEF03F070EF03F078EF03F056
:1006E000000E176E000E186E000E196E000E1A6EB8
:1006F000198E83EF03F0000E176E000E186E000EB9
:10070000196E000E1A6E2450D8B489EF03F08BEFE7
:1007100003F093EF03F02550D8A491EF03F093EF8B
:1007200003F09DEF03F0000E136E000E146E000E2A
:10073000156E000E166E35EF05F019501302F3CF4B
:100740002AF0F4CF2BF02A50206E216A226A236A05
:100750002B50266E276A286A296A18501402F3CF94
:100760002AF0F4CF2BF02A502026000E212222223C
:1007700023222B502626000E27222822292217501A
:100780001502F3CF2AF0F4CF2BF02A502026000ECA
:100790002122222223222B502626000E2722282225
:1007A000292222C023F021C022F020C021F0206A9B
:1007B00017501402F3CF2AF0F4CF2BF02A50202642
:1007C0002B502122000E2222000E23221850130249
:1007D000F3CF2AF0F4CF2BF02A5020262B502122E1
:1007E000000E2222000E232222C023F021C022F07C
:1007F00020C021F0206A17501302F3CF2AF0F4CF63
:100800002BF02A5020262B502122000E2222000EEF
:10081000232219501402F3CF2AF0F4CF2BF02A50E0
:1008200026262B502722000E2822000E292218509F
:100830001502F3CF2AF0F4CF2BF02A5026262B50A6
:100840002722000E2822000E292219501502F3CF6C
:100850002AF0F4CF2BF02A501B6E2B501C6E1D6A11
:100860001E6A1DC01EF01CC01DF01BC01CF01B6AC0
:100870001B5026261C5027221D5028221E5029229C
:1008800020C01BF021C01CF022C01DF023C01EF0B0
:10089000190E50EF04F0D8901E321D321C321B325C
:1008A000E82E4BEF04F01B5026261C5027221D502B
:1008B00028221E50292222C023F021C022F020C06D
:1008C00021F0206A245025C01BF01C6A1B26000E54
:1008D0001C22820E1B242A6EFF0E1C202B6E86EF1C
:1008E00004F0D890263627362836293623AE7BEFFB
:1008F00004F07DEF04F07EEF04F02680D8902036DF
:100900002136223623362A06D8A02B0628AE8BEFB6
:1009100004F08DEF04F071EF04F0000E246E23AEAE
:1009200094EF04F096EF04F0BAEF04F0FF0E2014F9
:100930001B6EFF0E21141C6EFF0E22141D6E7F0E07
:1009400023141E6E1B501C101D101E10D8B4ABEFCC
:1009500004F0ADEF04F0B1EF04F0010E246EBAEF35
:1009600004F026A0B6EF04F0B8EF04F0BAEF04F0FC
:10097000ADEF04F02450D8B4C0EF04F0C2EF04F09F
:10098000E6EF04F0010E2626000E27222822292257
:1009900029A0CDEF04F0CFEF04F0E6EF04F026C07D
:1009A0001BF027C01CF028C01DF029C01EF01E340B
:1009B0001E321D321C321B321BC026F01CC027F019
:1009C0001DC028F01EC029F02A4A2B2A2BBEF1EFA9
:1009D00004F02B5008E12A28D8A0F1EF04F0F3EF3F
:1009E00004F0FDEF04F0000E266E000E276E800E60
:1009F000286E7F0E296E2BEF05F02BBE0AEF05F057
:100A00002B5006E12A04D8B008EF05F00AEF05F0F4
:100A100016EF05F0000E266E000E276E000E286EF3
:100A2000000E296E000E1F6E2BEF05F02AC025F078
:100A3000FF0E2616FF0E27167F0E2816000E29160B
:100A400025A025EF05F027EF05F028EF05F0288E0B
:100A5000D8902530296E1F50291226C013F027C0C8
:100A600014F028C015F029C016F0120002BE44EFA1
:100A700005F0025007E1080E015CD8B042EF05F026
:100A800044EF05F06EEF05F003500410D8B44BEFBF
:100A900005F04DEF05F05DEF05F001C005F0010E2A
:100AA000066E052A56EF05F0D8900636052E54EF4F
:100AB00005F0065080125CEF06F001C005F0010E53
:100AC000066E052A66EF05F0D8900636052E64EF0F
:100AD00005F00650FF0A80165CEF06F002BE7CEFC0
:100AE00005F0025007E1100E015CD8B07AEF05F076
:100AF0007CEF05F0AAEF05F0F80E0126FF0E0222AA
:100B000003500410D8B487EF05F089EF05F099EF92
:100B100005F001C005F0010E066E052A92EF05F002
:100B2000D8900636052E90EF05F0065081125CEF46
:100B300006F001C005F0010E066E052AA2EF05F0D1
:100B4000D8900636052EA0EF05F00650FF0A811654
:100B50005CEF06F002BEB8EF05F0025007E1180E98
:100B6000015CD8B0B6EF05F0B8EF05F0E6EF05F0A0
:100B7000F00E0126FF0E022203500410D8B4C3EF7A
:100B800005F0C5EF05F0D5EF05F001C005F0010E49
:100B9000066E052ACEEF05F0D8900636052ECCEF6E
:100BA00005F0065082125CEF06F001C005F0010E60
:100BB000066E052ADEEF05F0D8900636052EDCEF2E
:100BC00005F00650FF0A82165CEF06F002BEF4EF55
:100BD00005F0025007E1200E015CD8B0F2EF05F0FD
:100BE000F4EF05F022EF06F0E80E0126FF0E0222D8
:100BF00003500410D8B4FFEF05F001EF06F011EF39
:100C000006F001C005F0010E066E052A0AEF06F097
:100C1000D8900636052E08EF06F0065083125CEFDA
:100C200006F001C005F0010E066E052A1AEF06F067
:100C3000D8900636052E18EF06F00650FF0A8316E8
:100C40005CEF06F002BE30EF06F0025007E1280E1E
:100C5000015CD8B02EEF06F030EF06F05CEF06F046
:100C6000E00E0126FF0E022203500410D8B43BEF21
:100C700006F03DEF06F04DEF06F001C005F0010E65
:100C8000066E052A46EF06F0D8900636052E44EF8C
:100C900006F0065084125CEF06F001C005F0010E6C
:100CA000066E052A56EF06F0D8900636052E54EF4C
:100CB00006F00650FF0A8416120002BE6BEF06F023
:100CC000025007E1080E015CD8B069EF06F06BEF47
:100CD00006F095EF06F003500410D8B472EF06F05A
:100CE00074EF06F084EF06F001C005F0010E066E09
:100CF000052A7DEF06F0D8900636052E7BEF06F02C
:100D00000650921283EF07F001C005F0010E066E47
:100D1000052A8DEF06F0D8900636052E8BEF06F0EB
:100D20000650FF0A921683EF07F002BEA3EF06F00B
:100D3000025007E1100E015CD8B0A1EF06F0A3EF5E
:100D400006F0D1EF06F003500410D8B4AAEF06F075
:100D5000ACEF06F0BEEF06F001C005F0F80E052678
:100D6000010E066E052AB7EF06F0D8900636052E5E
:100D7000B5EF06F00650931283EF07F001C005F0BF
:100D8000F80E0526010E066E052AC9EF06F0D8906A
:100D90000636052EC7EF06F00650FF0A931683EFBE
:100DA00007F002BEDFEF06F0025007E1180E015C0B
:100DB000D8B0DDEF06F0DFEF06F00DEF07F00350DF
:100DC0000410D8B4E6EF06F0E8EF06F0FAEF06F00C
:100DD00001C005F0F00E0526010E066E052AF3EFA0
:100DE00006F0D8900636052EF1EF06F00650941264
:100DF00083EF07F001C005F0F00E0526010E066E28
:100E0000052A05EF07F0D8900636052E03EF07F008
:100E10000650FF0A941683EF07F002BE1BEF07F09F
:100E2000025007E1200E015CD8B019EF07F01BEF6C
:100E300007F049EF07F003500410D8B422EF07F091
:100E400024EF07F036EF07F001C005F0E80E0526A5
:100E5000010E066E052A2FEF07F0D8900636052EF4
:100E60002DEF07F00650951283EF07F001C005F053
:100E7000E80E0526010E066E052A41EF07F0D89010
:100E80000636052E3FEF07F00650FF0A951683EF52
:100E900007F002BE57EF07F0025007E1280E015C91
:100EA000D8B055EF07F057EF07F083EF07F0035086
:100EB0000410D8B45EEF07F060EF07F072EF07F0B0
:100EC00001C005F0E00E0526010E066E052A6BEF47
:100ED00007F0D8900636052E69EF07F006509612F7
:100EE00083EF07F001C005F0E00E0526010E066E47
:100EF000052A7DEF07F0D8900636052E7BEF07F028
:100F00000650FF0A961612000D6E0D50D8B48BEFE6
:100F100007F08DEF07F0AFEF07F008BE94EF07F092
:100F200092EF07F0AFEF07F005C009F006C00AF036
:100F300007C00BF008C00CF0091E0A1E0B1E0C1E89
:100F4000092A000E0A220B220C2209C00FF00AC047
:100F500010F00BC011F00CC012F0B7EF07F005C095
:100F60000FF006C010F007C011F008C012F00550D5
:100F7000061007100810D8A4C0EF07F0C2EF07F062
:100F8000CCEF07F0000E056E000E066E000E076E29
:100F9000000E086E5DEF08F0960E0E6ED6EF07F0AD
:100FA0000E2AD8901232113210320F32000E0F1466
:100FB000096E000E10140A6E000E11140B6EFE0E58
:100FC00012140C6E09500A100B100C10D8A4EBEF81
:100FD00007F0EDEF07F0D0EF07F0FBEF07F00E2A78
:100FE000010E0F26000E102211221222D89012326A
:100FF000113210320F32000E0F14096E000E101451
:101000000A6E000E11140B6EFF0E12140C6E0950B6
:101010000A100B100C10D8A410EF08F012EF08F013
:10102000EFEF07F01AEF08F00E06D8900F361036E3
:101030001136123611BE1FEF08F021EF08F029EF2C
:1010400008F0020E0E6027EF08F029EF08F014EF09
:1010500008F00EB02EEF08F030EF08F031EF08F096
:10106000119ED8900E320EC009F00A6A0B6A0C6A03
:1010700009C00CF00B6A0A6A096A09500F120A507B
:1010800010120B5011120C5012120D50D8B44BEF1D
:1010900008F04DEF08F055EF08F008BE54EF08F0E7
:1010A00052EF08F055EF08F0128E0FC005F010C097
:1010B00006F011C007F012C008F0120083CF06F04E
:1010C0000F0E9512000E0A6EF80E93160AC001F06C
:1010D000010E026E012A6FEF08F0D8900236012E41
:1010E0006DEF08F002509312070E81120AC001F052
:1010F000010E026E012A7FEF08F0D8900236012E11
:101100007DEF08F00250FF0A8116000E086E000EF7
:10111000076E074A082A08BE97EF08F0085009E151
:101120000A0E075CD8A097EF08F099EF08F089EF56
:1011300008F0000E096E09C001F0010E026E012ACE
:10114000A4EF08F0D8900236012EA2EF08F002506A
:1011500083140009D8A4AFEF08F0B1EF08F0C9EF8D
:1011600008F00A50040DF3500924016E010E026EBE
:10117000000E036E012AC0EF08F0D8900236033645
:10118000012EBDEF08F00250421203504312E3EF6C
:1011900008F00A50040DF3500924016E010E026E8E
:1011A000000E036E012AD8EF08F0D89002360336FD
:1011B000012ED5EF08F0021C046E031C056E0450CE
:1011C000421605504316092A030E0964EAEF08F097
:1011D000ECEF08F09BEF08F00A2A020E0A64F3EF26
:1011E00008F0F5EF08F064EF08F04250401807E10E
:1011F00043504118D8A4FFEF08F001EF09F004EFC5
:1012000009F046060AEF09F00A0E466E42C040F0A9
:1012100043C041F04650D8A410EF09F012EF09F096
:1012200016EF09F040C044F041C045F006C083FF0E
:10123000000E956E1200000E0A6E000E096E000E72
:101240000C6E000E0B6E34EC0EF0230E096E060EC3
:101250000A6EE4EC0DF0000E176E000E186EA00E74
:10126000196E3B0E1A6E000E026E000E016E0CEC33
:101270000EF001C005F002C006F0000E06BEFF0E23
:10128000076E086E010E84EC07F005C013F006C06F
:1012900014F007C015F008C016F021EC03F013C0DD
:1012A00036F014C037F015C038F016C039F0000E13
:1012B000176E000E186EC80E196E420E1A6E36C0EA
:1012C00013F037C014F038C015F039C016F021EC17
:1012D00003F013C02CF014C02DF015C02EF016C072
:1012E0002FF069EC0BF02CC03AF02DC03BF03AC067
:1012F00001F03BC002F0000E046E090E036E83EC99
:101300000EF001C007F002C008F0000E0A6E050ED4
:10131000096EECEC0BF0200E07243C6E000E08204A
:101320003D6E3CC00DF03DC00EF0480E0F6E000E3D
:10133000106EE5EC0AF0000E0A6E010E096E000E4A
:101340000C6E050E0B6E34EC0EF04A50BAEC0DF03C
:101350004B50BAEC0DF04C50BAEC0DF02C0EBAEC30
:101360000DF04D50BAEC0DF0100E096E060E0A6E1F
:10137000E4EC0DF0DF0EBAEC0DF03D0E096E060E3A
:101380000A6EE4EC0DF01200000E0A6E000E096EFB
:10139000000E0C6E000E0B6E34EC0EF0010E096E9A
:1013A000060E0A6EE4EC0DF0000E176E000E186EBD
:1013B000A00E196E3B0E1A6E000E026E000E016E2C
:1013C0000CEC0EF001C005F002C006F0000E06BEE7
:1013D000FF0E076E086E010E84EC07F005C013F0D7
:1013E00006C014F007C015F008C016F021EC03F099
:1013F00013C036F014C037F015C038F016C039F0FD
:10140000000E176E000E186EC80E196E420E1A6E80
:1014100036C013F037C014F038C015F039C016F0DC
:1014200021EC03F013C02CF014C02DF015C02EF0E9
:1014300016C02FF069EC0BF02CC03AF02DC03BF039
:10144000110E3A243C6E010E3B203D6E3CC00DF067
:101450003DC00EF0480E0F6E000E106EE5EC0AF067
:10146000000E0A6E010E096E000E0C6E050E0B6E5C
:1014700034EC0EF04A50BAEC0DF04B50BAEC0DF0D3
:101480004C50BAEC0DF02C0EBAEC0DF04D50BAECFD
:101490000DF0100E096E060E0A6EE4EC0DF0340E1F
:1014A000096E060E0A6EE4EC0DF01200000E0A6ED4
:1014B000000E096E000E0C6E000E0B6E34EC0EF07A
:1014C000120E096E060E0A6EE4EC0DF0000E176E99
:1014D000000E186EA00E196E3B0E1A6E000E026EF4
:1014E000000E016E0CEC0EF001C005F002C006F01B
:1014F000000E06BEFF0E076E086E010E84EC07F0AC
:1015000005C013F006C014F007C015F008C016F0AF
:1015100021EC03F013C036F014C037F015C038F0DA
:1015200016C039F0000E176E000E186EC80E196E38
:10153000420E1A6E36C013F037C014F038C015F0E2
:1015400039C016F021EC03F013C02CF014C02DF0BC
:1015500015C02EF016C02FF069EC0BF02CC03AF03D
:101560002DC03BF03AC00DF03BC00EF0480E0F6EA0
:10157000000E106EE5EC0AF0000E0A6E010E096E08
:10158000000E0C6E050E0B6E34EC0EF04A50BAECE9
:101590000DF04B50BAEC0DF04C50BAEC0DF02C0E97
:1015A000BAEC0DF04D50BAEC0DF0100E096E060EAF
:1015B0000A6EE4EC0DF0DF0EBAEC0DF0390E096E98
:1015C000060E0A6EE4EC0DF012000DC006F00EC01F
:1015D00007F0270E096E100E086E4EEC0DF0065047
:1015E000300F0FC0D9FF10C0DAFFDF6E20EE01F020
:1015F0000F50D9261050DA22270E046E100E036EFB
:101600000DC001F00EC002F088EC0DF001C006F034
:1016100002C007F0030E096EE80E086E4EEC0DF0E6
:101620000650300FDF6E20EE02F00F50D92610501A
:10163000DA22030E046EE80E036E0DC001F00EC038
:1016400002F088EC0DF001C006F002C007F0000EB9
:10165000096E640E086E4EEC0DF00650300FDF6E12
:1016600020EE03F00F50D9261050DA22000E046E3F
:10167000640E036E0DC001F00EC002F088EC0DF098
:1016800001C006F002C007F0000E096E0A0E086ED7
:101690004EEC0DF00650300FDF6E20EE04F00F50D0
:1016A000D9261050DA220DC001F00EC002F0000E53
:1016B000046E0A0E036E88EC0DF00150300FDF6EE1
:1016C00020EE05F00F50D9261050DA22300EDF6ED2
:1016D00012002E342F34356E3550D8A472EF0BF033
:1016E00074EF0BF07EEF0BF0000E2C6E000E2D6EE3
:1016F000000E2E6E000E2F6EEBEF0BF02CC030F0B4
:101700002DC031F02EC032F02FC033F0200E8EEFFE
:101710000BF0D8903332323231323032E82E89EF4A
:101720000BF03050346E2E8EFF0E2C16FF0E2D1641
:10173000FF0E2E16000E2F16960E355E35BEA5EF47
:101740000BF0A3EF0BF0BBEF0BF03550800A970FB7
:10175000D8B0ADEF0BF0AFEF0BF0B1EF0BF074EFD3
:101760000BF0D8902F322E322D322C32353EB1EF85
:101770000BF0D3EF0BF01F0E3564C1EF0BF0C3EF8E
:101780000BF0CBEF0BF074EF0BF0D8902C362D361E
:101790002E362F3635063550D8A4D1EF0BF0D3EFC7
:1017A0000BF0C5EF0BF03450D8B4D9EF0BF0DBEFF2
:1017B0000BF0E3EF0BF02F1E2E1E2D1E2C6C000ED7
:1017C0002D222E222F222CC02CF02DC02DF02EC029
:1017D0002EF02FC02FF01200000E0C6E0ABEF5EF97
:1017E0000BF0F3EF0BF0FBEF0BF0096C0A1ED8B017
:1017F0000A2A010E0C6E08BE02EF0CF000EF0CF08E
:1018000008EF0CF0076C081ED8B0082A010E0C1A5D
:10181000000E0E6E000E0D6E09500A10D8B413EFB4
:101820000CF015EF0CF03DEF0CF0010E0B6E1DEF00
:101830000CF0D89009360A360B2A0AAE22EF0CF0CB
:1018400024EF0CF019EF0CF0D8900D360E3609503D
:10185000075C0A500858D8A030EF0CF032EF0CF0BB
:1018600037EF0CF00950075E0A50085A0D80D890E7
:101870000A3209320B2E24EF0CF00C50D8B443EF8F
:101880000CF045EF0CF049EF0CF00D6C0E1ED8B0CB
:101890000E2A0DC007F00EC008F012004750036E6C
:1018A000046AB0EC0EF00350011809E1045002186C
:1018B000D8B45DEF0CF05FEF0CF095EF0CF0B0ECEE
:1018C0000EF00150476E47A068EF0CF06AEF0CF085
:1018D0007CEF0CF04FBE78EF0CF04F5007E1040E98
:1018E0004E5CD8B076EF0CF078EF0CF095EF0CF082
:1018F0004E4A4F2A95EF0CF047A681EF0CF083EF8C
:101900000CF095EF0CF04FBE8EEF0CF04F5008E14D
:101910004E04D8A08EEF0CF090EF0CF095EF0CF089
:101920004E06D8A04F0695EF0CF01200086E83CF3C
:1019300007F0000E956E000E026E220E016E000E74
:10194000046E000E036E36EC05F008C083FF000E37
:10195000026E210E016E000E046E010E036E36EC57
:1019600005F0000E026E210E016E000E046E000ED8
:10197000036E36EC05F007C083FF020E0818D8B4DA
:10198000C4EF0CF0C6EF0CF0CEEF0CF00804D8A4B6
:10199000CCEF0CF0CEEF0CF0D2EF0CF096EC0EF09A
:1019A000D4EF0CF0A4EC0EF01200B5EC0EF06BECE2
:1019B0000EF012EC0DF05EEC08F04EEC0CF0F6EFD1
:1019C0000CF0818A819C819E56EC0AF0DBEF0CF0D2
:1019D000819A818C819E1BEC09F0DBEF0CF0819ADF
:1019E000819C818EC4EC09F0DBEF0CF04EC03EF020
:1019F0004FC03FF03F50000AD8B401EF0DF0DBEFCD
:101A00000CF03E50010AD8B4E1EF0CF0030AD8B450
:101A1000E8EF0CF0010AD8B4EFEF0CF0DBEF0CF0BC
:101A200000EF00F0000E026E220E016E000E046E3A
:101A3000000E036E5DEC06F0000E026E210E016ECC
:101A4000000E046E000E036E5DEC06F0000E956E47
:101A500096EC0EF096EC0EF096EC0EF096EC0EF086
:101A600096EC0EF0380E96EC0CF096EC0EF096EC30
:101A70000EF0380E96EC0CF096EC0EF0380E96EC5C
:101A80000CF0380E96EC0CF0060E96EC0CF00C0EEA
:101A900096EC0CF0010E96EC0CF01200000E0B6EA2
:101AA000000E0A6E08500910D8B459EF0DF05BEF24
:101AB0000DF083EF0DF0010E0C6E63EF0DF0D8907A
:101AC000083609360C2A09AE68EF0DF06AEF0DF002
:101AD0005FEF0DF0D8900A360B360850065C0950BF
:101AE0000758D8A076EF0DF078EF0DF07DEF0DF0F0
:101AF0000850065E0950075A0A80D8900932083209
:101B00000C2E6AEF0DF00AC006F00BC007F01200B1
:101B100003500410D8B48FEF0DF091EF0DF0B5EF36
:101B20000DF0010E056E99EF0DF0D89003360436D6
:101B3000052A04AE9EEF0DF0A0EF0DF095EF0DF02D
:101B40000350015C04500258D8A0A9EF0DF0ABEF90
:101B50000DF0AFEF0DF00350015E0450025AD89023
:101B600004320332052EA0EF0DF001C001F002C0D7
:101B700002F01200076E83CF08F0000E956E000E83
:101B8000026E220E016E000E046E010E036E36EC24
:101B900005F007C083FF000E026E210E016E000EDD
:101BA000046E010E036E36EC05F0000E026E210E7F
:101BB000016E000E046E000E036E36EC05F008C0D8
:101BC00083FFA4EC0EF01200000E0D6EF7EF0DF087
:101BD0000D5009240B6E000E0A200C6E0BC0F6FF90
:101BE0000CC0F7FF0800F550BAEC0DF00D2A0D50AF
:101BF00009240B6E000E0A200C6E0BC0F6FF0CC001
:101C0000F7FF0800F5500009D8A409EF0EF00BEF1C
:101C10000EF0E8EF0DF01200C30EC216025007E1FD
:101C2000030E015CD8B017EF0EF019EF0EF01DEFA8
:101C30000EF00144E846FC0BC212C282C2B223EF8E
:101C40000EF025EF0EF01EEF0EF0C4CF03F0046A85
:101C50000350046E036AC3500326000E042203C01F
:101C600001F004C002F0120009500A10D8A43BEFA2
:101C70000EF03DEF0EF042EF0EF00B500F0B800F09
:101C800096EC0CF009040A10D8A449EF0EF04BEFC3
:101C90000EF050EF0EF00B500F0BC00F96EC0CF047
:101CA0001200740EF66E1D0EF76E000EF86E09002F
:101CB000F5CF4EF00900F5CF4FF00900F5CF50F009
:101CC00000EE40F00E0EEE6AE806FDE1000EF86E42
:101CD0000001D5EF0CF0000E026E000E016E000E3A
:101CE000046E010E036E5DEC06F0000E026E010E36
:101CF000016E000E046E010E036E5DEC06F0C280F4
:101D0000AA0EC06E120001500302F3CF05F0F4CF0B
:101D100006F001500402F350062602500302F3506D
:101D2000062605C001F006C002F01200000E026E89
:101D3000A4EC0EF0022A310E0264A1EF0EF0A3EF24
:101D40000EF098EF0EF01200000E016E012A180E30
:101D50000164ADEF0EF0AFEF0EF0A6EF0EF0120043
:101D600044C001F045C002F01200070E93160F0E9A
:071D7000951212000100DFD3
:020000040020DA
:08000000FFFFFFFFFFFFFFFF00
:020000040030CA
:0E000000FF027100FF8380FF0FC00FE00F4072
:00000001FF
